{
  "contractName": "TestNFT",
  "abi": [
    {
      "inputs": [],
      "stateMutability": "nonpayable",
      "type": "constructor"
    },
    {
      "anonymous": false,
      "inputs": [
        {
          "indexed": true,
          "internalType": "address",
          "name": "owner",
          "type": "address"
        },
        {
          "indexed": true,
          "internalType": "address",
          "name": "approved",
          "type": "address"
        },
        {
          "indexed": true,
          "internalType": "uint256",
          "name": "tokenId",
          "type": "uint256"
        }
      ],
      "name": "Approval",
      "type": "event"
    },
    {
      "anonymous": false,
      "inputs": [
        {
          "indexed": true,
          "internalType": "address",
          "name": "owner",
          "type": "address"
        },
        {
          "indexed": true,
          "internalType": "address",
          "name": "operator",
          "type": "address"
        },
        {
          "indexed": false,
          "internalType": "bool",
          "name": "approved",
          "type": "bool"
        }
      ],
      "name": "ApprovalForAll",
      "type": "event"
    },
    {
      "anonymous": false,
      "inputs": [
        {
          "indexed": false,
          "internalType": "uint256",
          "name": "_fromTokenId",
          "type": "uint256"
        },
        {
          "indexed": false,
          "internalType": "uint256",
          "name": "_toTokenId",
          "type": "uint256"
        }
      ],
      "name": "BatchMetadataUpdate",
      "type": "event"
    },
    {
      "anonymous": false,
      "inputs": [
        {
          "indexed": false,
          "internalType": "uint256",
          "name": "_tokenId",
          "type": "uint256"
        }
      ],
      "name": "MetadataUpdate",
      "type": "event"
    },
    {
      "anonymous": false,
      "inputs": [
        {
          "indexed": true,
          "internalType": "address",
          "name": "previousOwner",
          "type": "address"
        },
        {
          "indexed": true,
          "internalType": "address",
          "name": "newOwner",
          "type": "address"
        }
      ],
      "name": "OwnershipTransferred",
      "type": "event"
    },
    {
      "anonymous": false,
      "inputs": [
        {
          "indexed": true,
          "internalType": "address",
          "name": "from",
          "type": "address"
        },
        {
          "indexed": true,
          "internalType": "address",
          "name": "to",
          "type": "address"
        },
        {
          "indexed": true,
          "internalType": "uint256",
          "name": "tokenId",
          "type": "uint256"
        }
      ],
      "name": "Transfer",
      "type": "event"
    },
    {
      "inputs": [
        {
          "internalType": "address",
          "name": "to",
          "type": "address"
        },
        {
          "internalType": "uint256",
          "name": "tokenId",
          "type": "uint256"
        }
      ],
      "name": "approve",
      "outputs": [],
      "stateMutability": "nonpayable",
      "type": "function"
    },
    {
      "inputs": [
        {
          "internalType": "address",
          "name": "owner",
          "type": "address"
        }
      ],
      "name": "balanceOf",
      "outputs": [
        {
          "internalType": "uint256",
          "name": "",
          "type": "uint256"
        }
      ],
      "stateMutability": "view",
      "type": "function",
      "constant": true
    },
    {
      "inputs": [
        {
          "internalType": "uint256",
          "name": "tokenId",
          "type": "uint256"
        }
      ],
      "name": "getApproved",
      "outputs": [
        {
          "internalType": "address",
          "name": "",
          "type": "address"
        }
      ],
      "stateMutability": "view",
      "type": "function",
      "constant": true
    },
    {
      "inputs": [
        {
          "internalType": "address",
          "name": "owner",
          "type": "address"
        },
        {
          "internalType": "address",
          "name": "operator",
          "type": "address"
        }
      ],
      "name": "isApprovedForAll",
      "outputs": [
        {
          "internalType": "bool",
          "name": "",
          "type": "bool"
        }
      ],
      "stateMutability": "view",
      "type": "function",
      "constant": true
    },
    {
      "inputs": [],
      "name": "name",
      "outputs": [
        {
          "internalType": "string",
          "name": "",
          "type": "string"
        }
      ],
      "stateMutability": "view",
      "type": "function",
      "constant": true
    },
    {
      "inputs": [],
      "name": "owner",
      "outputs": [
        {
          "internalType": "address",
          "name": "",
          "type": "address"
        }
      ],
      "stateMutability": "view",
      "type": "function",
      "constant": true
    },
    {
      "inputs": [
        {
          "internalType": "uint256",
          "name": "tokenId",
          "type": "uint256"
        }
      ],
      "name": "ownerOf",
      "outputs": [
        {
          "internalType": "address",
          "name": "",
          "type": "address"
        }
      ],
      "stateMutability": "view",
      "type": "function",
      "constant": true
    },
    {
      "inputs": [],
      "name": "renounceOwnership",
      "outputs": [],
      "stateMutability": "nonpayable",
      "type": "function"
    },
    {
      "inputs": [
        {
          "internalType": "address",
          "name": "from",
          "type": "address"
        },
        {
          "internalType": "address",
          "name": "to",
          "type": "address"
        },
        {
          "internalType": "uint256",
          "name": "tokenId",
          "type": "uint256"
        }
      ],
      "name": "safeTransferFrom",
      "outputs": [],
      "stateMutability": "nonpayable",
      "type": "function"
    },
    {
      "inputs": [
        {
          "internalType": "address",
          "name": "from",
          "type": "address"
        },
        {
          "internalType": "address",
          "name": "to",
          "type": "address"
        },
        {
          "internalType": "uint256",
          "name": "tokenId",
          "type": "uint256"
        },
        {
          "internalType": "bytes",
          "name": "data",
          "type": "bytes"
        }
      ],
      "name": "safeTransferFrom",
      "outputs": [],
      "stateMutability": "nonpayable",
      "type": "function"
    },
    {
      "inputs": [
        {
          "internalType": "address",
          "name": "operator",
          "type": "address"
        },
        {
          "internalType": "bool",
          "name": "approved",
          "type": "bool"
        }
      ],
      "name": "setApprovalForAll",
      "outputs": [],
      "stateMutability": "nonpayable",
      "type": "function"
    },
    {
      "inputs": [
        {
          "internalType": "bytes4",
          "name": "interfaceId",
          "type": "bytes4"
        }
      ],
      "name": "supportsInterface",
      "outputs": [
        {
          "internalType": "bool",
          "name": "",
          "type": "bool"
        }
      ],
      "stateMutability": "view",
      "type": "function",
      "constant": true
    },
    {
      "inputs": [],
      "name": "symbol",
      "outputs": [
        {
          "internalType": "string",
          "name": "",
          "type": "string"
        }
      ],
      "stateMutability": "view",
      "type": "function",
      "constant": true
    },
    {
      "inputs": [
        {
          "internalType": "uint256",
          "name": "tokenId",
          "type": "uint256"
        }
      ],
      "name": "tokenURI",
      "outputs": [
        {
          "internalType": "string",
          "name": "",
          "type": "string"
        }
      ],
      "stateMutability": "view",
      "type": "function",
      "constant": true
    },
    {
      "inputs": [
        {
          "internalType": "address",
          "name": "from",
          "type": "address"
        },
        {
          "internalType": "address",
          "name": "to",
          "type": "address"
        },
        {
          "internalType": "uint256",
          "name": "tokenId",
          "type": "uint256"
        }
      ],
      "name": "transferFrom",
      "outputs": [],
      "stateMutability": "nonpayable",
      "type": "function"
    },
    {
      "inputs": [
        {
          "internalType": "address",
          "name": "newOwner",
          "type": "address"
        }
      ],
      "name": "transferOwnership",
      "outputs": [],
      "stateMutability": "nonpayable",
      "type": "function"
    },
    {
      "inputs": [
        {
          "internalType": "address",
          "name": "recipient",
          "type": "address"
        },
        {
          "internalType": "string",
          "name": "tokenURI",
          "type": "string"
        }
      ],
      "name": "mintNFT",
      "outputs": [
        {
          "internalType": "uint256",
          "name": "",
          "type": "uint256"
        }
      ],
      "stateMutability": "nonpayable",
      "type": "function"
    }
  ],
  "bytecode": "0x60806040523480156200001157600080fd5b506040518060400160405280600881526020017f54657374204e46540000000000000000000000000000000000000000000000008152506040518060400160405280600381526020017f5446540000000000000000000000000000000000000000000000000000000000815250816000908051906020019062000096929190620001a6565b508060019080519060200190620000af929190620001a6565b505050620000d2620000c6620000d860201b60201c565b620000e060201b60201c565b620002ba565b600033905090565b6000600760009054906101000a900473ffffffffffffffffffffffffffffffffffffffff16905081600760006101000a81548173ffffffffffffffffffffffffffffffffffffffff021916908373ffffffffffffffffffffffffffffffffffffffff1602179055508173ffffffffffffffffffffffffffffffffffffffff168173ffffffffffffffffffffffffffffffffffffffff167f8be0079c531659141344cd1fd0a4f28419497f9722a3daafe3b4186f6b6457e060405160405180910390a35050565b828054620001b49062000285565b90600052602060002090601f016020900481019282620001d8576000855562000224565b82601f10620001f357805160ff191683800117855562000224565b8280016001018555821562000224579182015b828111156200022357825182559160200191906001019062000206565b5b50905062000233919062000237565b5090565b5b808211156200025257600081600090555060010162000238565b5090565b7f4e487b7100000000000000000000000000000000000000000000000000000000600052602260045260246000fd5b600060028204905060018216806200029e57607f821691505b602082108103620002b457620002b362000256565b5b50919050565b612d1f80620002ca6000396000f3fe608060405234801561001057600080fd5b506004361061010b5760003560e01c8063715018a6116100a2578063b88d4fde11610071578063b88d4fde146102a4578063c87b56dd146102c0578063e985e9c5146102f0578063eacabe1414610320578063f2fde38b146103505761010b565b8063715018a6146102425780638da5cb5b1461024c57806395d89b411461026a578063a22cb465146102885761010b565b806323b872dd116100de57806323b872dd146101aa57806342842e0e146101c65780636352211e146101e257806370a08231146102125761010b565b806301ffc9a71461011057806306fdde0314610140578063081812fc1461015e578063095ea7b31461018e575b600080fd5b61012a60048036038101906101259190611d85565b61036c565b6040516101379190611dcd565b60405180910390f35b6101486103cd565b6040516101559190611e81565b60405180910390f35b61017860048036038101906101739190611ed9565b61045f565b6040516101859190611f47565b60405180910390f35b6101a860048036038101906101a39190611f8e565b6104a5565b005b6101c460048036038101906101bf9190611fce565b6105bc565b005b6101e060048036038101906101db9190611fce565b61061c565b005b6101fc60048036038101906101f79190611ed9565b61063c565b6040516102099190611f47565b60405180910390f35b61022c60048036038101906102279190612021565b6106c2565b604051610239919061205d565b60405180910390f35b61024a610779565b005b61025461078d565b6040516102619190611f47565b60405180910390f35b6102726107b7565b60405161027f9190611e81565b60405180910390f35b6102a2600480360381019061029d91906120a4565b610849565b005b6102be60048036038101906102b99190612219565b61085f565b005b6102da60048036038101906102d59190611ed9565b6108c1565b6040516102e79190611e81565b60405180910390f35b61030a6004803603810190610305919061229c565b6109d3565b6040516103179190611dcd565b60405180910390f35b61033a6004803603810190610335919061237d565b610a67565b604051610347919061205d565b60405180910390f35b61036a60048036038101906103659190612021565b610ac8565b005b6000634906490660e01b7bffffffffffffffffffffffffffffffffffffffffffffffffffffffff1916827bffffffffffffffffffffffffffffffffffffffffffffffffffffffff191614806103c657506103c582610b4b565b5b9050919050565b6060600080546103dc90612408565b80601f016020809104026020016040519081016040528092919081815260200182805461040890612408565b80156104555780601f1061042a57610100808354040283529160200191610455565b820191906000526020600020905b81548152906001019060200180831161043857829003601f168201915b5050505050905090565b600061046a82610c2d565b6004600083815260200190815260200160002060009054906101000a900473ffffffffffffffffffffffffffffffffffffffff169050919050565b60006104b08261063c565b90508073ffffffffffffffffffffffffffffffffffffffff168373ffffffffffffffffffffffffffffffffffffffff1603610520576040517f08c379a0000000000000000000000000000000000000000000000000000000008152600401610517906124ab565b60405180910390fd5b8073ffffffffffffffffffffffffffffffffffffffff1661053f610c78565b73ffffffffffffffffffffffffffffffffffffffff16148061056e575061056d81610568610c78565b6109d3565b5b6105ad576040517f08c379a00000000000000000000000000000000000000000000000000000000081526004016105a49061253d565b60405180910390fd5b6105b78383610c80565b505050565b6105cd6105c7610c78565b82610d39565b61060c576040517f08c379a0000000000000000000000000000000000000000000000000000000008152600401610603906125cf565b60405180910390fd5b610617838383610dce565b505050565b6106378383836040518060200160405280600081525061085f565b505050565b600080610648836110c7565b9050600073ffffffffffffffffffffffffffffffffffffffff168173ffffffffffffffffffffffffffffffffffffffff16036106b9576040517f08c379a00000000000000000000000000000000000000000000000000000000081526004016106b09061263b565b60405180910390fd5b80915050919050565b60008073ffffffffffffffffffffffffffffffffffffffff168273ffffffffffffffffffffffffffffffffffffffff1603610732576040517f08c379a0000000000000000000000000000000000000000000000000000000008152600401610729906126cd565b60405180910390fd5b600360008373ffffffffffffffffffffffffffffffffffffffff1673ffffffffffffffffffffffffffffffffffffffff168152602001908152602001600020549050919050565b610781611104565b61078b6000611182565b565b6000600760009054906101000a900473ffffffffffffffffffffffffffffffffffffffff16905090565b6060600180546107c690612408565b80601f01602080910402602001604051908101604052809291908181526020018280546107f290612408565b801561083f5780601f106108145761010080835404028352916020019161083f565b820191906000526020600020905b81548152906001019060200180831161082257829003601f168201915b5050505050905090565b61085b610854610c78565b8383611248565b5050565b61087061086a610c78565b83610d39565b6108af576040517f08c379a00000000000000000000000000000000000000000000000000000000081526004016108a6906125cf565b60405180910390fd5b6108bb848484846113b4565b50505050565b60606108cc82610c2d565b60006006600084815260200190815260200160002080546108ec90612408565b80601f016020809104026020016040519081016040528092919081815260200182805461091890612408565b80156109655780601f1061093a57610100808354040283529160200191610965565b820191906000526020600020905b81548152906001019060200180831161094857829003601f168201915b505050505090506000610976611410565b9050600081510361098b5781925050506109ce565b6000825111156109c05780826040516020016109a8929190612729565b604051602081830303815290604052925050506109ce565b6109c984611427565b925050505b919050565b6000600560008473ffffffffffffffffffffffffffffffffffffffff1673ffffffffffffffffffffffffffffffffffffffff16815260200190815260200160002060008373ffffffffffffffffffffffffffffffffffffffff1673ffffffffffffffffffffffffffffffffffffffff16815260200190815260200160002060009054906101000a900460ff16905092915050565b6000610a73600861148f565b6000610a7f60086114a5565b9050610a8b84826114b3565b610abe8184610a99846114d1565b604051602001610aaa929190612729565b60405160208183030381529060405261159f565b8091505092915050565b610ad0611104565b600073ffffffffffffffffffffffffffffffffffffffff168173ffffffffffffffffffffffffffffffffffffffff1603610b3f576040517f08c379a0000000000000000000000000000000000000000000000000000000008152600401610b36906127bf565b60405180910390fd5b610b4881611182565b50565b60007f80ac58cd000000000000000000000000000000000000000000000000000000007bffffffffffffffffffffffffffffffffffffffffffffffffffffffff1916827bffffffffffffffffffffffffffffffffffffffffffffffffffffffff19161480610c1657507f5b5e139f000000000000000000000000000000000000000000000000000000007bffffffffffffffffffffffffffffffffffffffffffffffffffffffff1916827bffffffffffffffffffffffffffffffffffffffffffffffffffffffff1916145b80610c265750610c258261164a565b5b9050919050565b610c36816116b4565b610c75576040517f08c379a0000000000000000000000000000000000000000000000000000000008152600401610c6c9061263b565b60405180910390fd5b50565b600033905090565b816004600083815260200190815260200160002060006101000a81548173ffffffffffffffffffffffffffffffffffffffff021916908373ffffffffffffffffffffffffffffffffffffffff160217905550808273ffffffffffffffffffffffffffffffffffffffff16610cf38361063c565b73ffffffffffffffffffffffffffffffffffffffff167f8c5be1e5ebec7d5bd14f71427d1e84f3dd0314c0f7b2291e5b200ac8c7c3b92560405160405180910390a45050565b600080610d458361063c565b90508073ffffffffffffffffffffffffffffffffffffffff168473ffffffffffffffffffffffffffffffffffffffff161480610d875750610d8681856109d3565b5b80610dc557508373ffffffffffffffffffffffffffffffffffffffff16610dad8461045f565b73ffffffffffffffffffffffffffffffffffffffff16145b91505092915050565b8273ffffffffffffffffffffffffffffffffffffffff16610dee8261063c565b73ffffffffffffffffffffffffffffffffffffffff1614610e44576040517f08c379a0000000000000000000000000000000000000000000000000000000008152600401610e3b90612851565b60405180910390fd5b600073ffffffffffffffffffffffffffffffffffffffff168273ffffffffffffffffffffffffffffffffffffffff1603610eb3576040517f08c379a0000000000000000000000000000000000000000000000000000000008152600401610eaa906128e3565b60405180910390fd5b610ec083838360016116f5565b8273ffffffffffffffffffffffffffffffffffffffff16610ee08261063c565b73ffffffffffffffffffffffffffffffffffffffff1614610f36576040517f08c379a0000000000000000000000000000000000000000000000000000000008152600401610f2d90612851565b60405180910390fd5b6004600082815260200190815260200160002060006101000a81549073ffffffffffffffffffffffffffffffffffffffff02191690556001600360008573ffffffffffffffffffffffffffffffffffffffff1673ffffffffffffffffffffffffffffffffffffffff168152602001908152602001600020600082825403925050819055506001600360008473ffffffffffffffffffffffffffffffffffffffff1673ffffffffffffffffffffffffffffffffffffffff16815260200190815260200160002060008282540192505081905550816002600083815260200190815260200160002060006101000a81548173ffffffffffffffffffffffffffffffffffffffff021916908373ffffffffffffffffffffffffffffffffffffffff160217905550808273ffffffffffffffffffffffffffffffffffffffff168473ffffffffffffffffffffffffffffffffffffffff167fddf252ad1be2c89b69c2b068fc378daa952ba7f163c4a11628f55a4df523b3ef60405160405180910390a46110c283838360016116fb565b505050565b60006002600083815260200190815260200160002060009054906101000a900473ffffffffffffffffffffffffffffffffffffffff169050919050565b61110c610c78565b73ffffffffffffffffffffffffffffffffffffffff1661112a61078d565b73ffffffffffffffffffffffffffffffffffffffff1614611180576040517f08c379a00000000000000000000000000000000000000000000000000000000081526004016111779061294f565b60405180910390fd5b565b6000600760009054906101000a900473ffffffffffffffffffffffffffffffffffffffff16905081600760006101000a81548173ffffffffffffffffffffffffffffffffffffffff021916908373ffffffffffffffffffffffffffffffffffffffff1602179055508173ffffffffffffffffffffffffffffffffffffffff168173ffffffffffffffffffffffffffffffffffffffff167f8be0079c531659141344cd1fd0a4f28419497f9722a3daafe3b4186f6b6457e060405160405180910390a35050565b8173ffffffffffffffffffffffffffffffffffffffff168373ffffffffffffffffffffffffffffffffffffffff16036112b6576040517f08c379a00000000000000000000000000000000000000000000000000000000081526004016112ad906129bb565b60405180910390fd5b80600560008573ffffffffffffffffffffffffffffffffffffffff1673ffffffffffffffffffffffffffffffffffffffff16815260200190815260200160002060008473ffffffffffffffffffffffffffffffffffffffff1673ffffffffffffffffffffffffffffffffffffffff16815260200190815260200160002060006101000a81548160ff0219169083151502179055508173ffffffffffffffffffffffffffffffffffffffff168373ffffffffffffffffffffffffffffffffffffffff167f17307eab39ab6107e8899845ad3d59bd9653f200f220920489ca2b5937696c31836040516113a79190611dcd565b60405180910390a3505050565b6113bf848484610dce565b6113cb84848484611701565b61140a576040517f08c379a000000000000000000000000000000000000000000000000000000000815260040161140190612a4d565b60405180910390fd5b50505050565b606060405180602001604052806000815250905090565b606061143282610c2d565b600061143c611410565b9050600081511161145c5760405180602001604052806000815250611487565b80611466846114d1565b604051602001611477929190612729565b6040516020818303038152906040525b915050919050565b6001816000016000828254019250508190555050565b600081600001549050919050565b6114cd828260405180602001604052806000815250611888565b5050565b6060600060016114e0846118e3565b01905060008167ffffffffffffffff8111156114ff576114fe6120ee565b5b6040519080825280601f01601f1916602001820160405280156115315781602001600182028036833780820191505090505b509050600082602001820190505b600115611594578080600190039150507f3031323334353637383961626364656600000000000000000000000000000000600a86061a8153600a858161158857611587612a6d565b5b0494506000850361153f575b819350505050919050565b6115a8826116b4565b6115e7576040517f08c379a00000000000000000000000000000000000000000000000000000000081526004016115de90612b0e565b60405180910390fd5b8060066000848152602001908152602001600020908051906020019061160e929190611c76565b507ff8e1a15aba9398e019f0b49df1a4fde98ee17ae345cb5f6b5e2c27f5033e8ce78260405161163e919061205d565b60405180910390a15050565b60007f01ffc9a7000000000000000000000000000000000000000000000000000000007bffffffffffffffffffffffffffffffffffffffffffffffffffffffff1916827bffffffffffffffffffffffffffffffffffffffffffffffffffffffff1916149050919050565b60008073ffffffffffffffffffffffffffffffffffffffff166116d6836110c7565b73ffffffffffffffffffffffffffffffffffffffff1614159050919050565b50505050565b50505050565b60006117228473ffffffffffffffffffffffffffffffffffffffff16611a36565b1561187b578373ffffffffffffffffffffffffffffffffffffffff1663150b7a0261174b610c78565b8786866040518563ffffffff1660e01b815260040161176d9493929190612b83565b6020604051808303816000875af19250505080156117a957506040513d601f19601f820116820180604052508101906117a69190612be4565b60015b61182b573d80600081146117d9576040519150601f19603f3d011682016040523d82523d6000602084013e6117de565b606091505b506000815103611823576040517f08c379a000000000000000000000000000000000000000000000000000000000815260040161181a90612a4d565b60405180910390fd5b805181602001fd5b63150b7a0260e01b7bffffffffffffffffffffffffffffffffffffffffffffffffffffffff1916817bffffffffffffffffffffffffffffffffffffffffffffffffffffffff191614915050611880565b600190505b949350505050565b6118928383611a59565b61189f6000848484611701565b6118de576040517f08c379a00000000000000000000000000000000000000000000000000000000081526004016118d590612a4d565b60405180910390fd5b505050565b600080600090507a184f03e93ff9f4daa797ed6e38ed64bf6a1f0100000000000000008310611941577a184f03e93ff9f4daa797ed6e38ed64bf6a1f010000000000000000838161193757611936612a6d565b5b0492506040810190505b6d04ee2d6d415b85acef8100000000831061197e576d04ee2d6d415b85acef8100000000838161197457611973612a6d565b5b0492506020810190505b662386f26fc1000083106119ad57662386f26fc1000083816119a3576119a2612a6d565b5b0492506010810190505b6305f5e10083106119d6576305f5e10083816119cc576119cb612a6d565b5b0492506008810190505b61271083106119fb5761271083816119f1576119f0612a6d565b5b0492506004810190505b60648310611a1e5760648381611a1457611a13612a6d565b5b0492506002810190505b600a8310611a2d576001810190505b80915050919050565b6000808273ffffffffffffffffffffffffffffffffffffffff163b119050919050565b600073ffffffffffffffffffffffffffffffffffffffff168273ffffffffffffffffffffffffffffffffffffffff1603611ac8576040517f08c379a0000000000000000000000000000000000000000000000000000000008152600401611abf90612c5d565b60405180910390fd5b611ad1816116b4565b15611b11576040517f08c379a0000000000000000000000000000000000000000000000000000000008152600401611b0890612cc9565b60405180910390fd5b611b1f6000838360016116f5565b611b28816116b4565b15611b68576040517f08c379a0000000000000000000000000000000000000000000000000000000008152600401611b5f90612cc9565b60405180910390fd5b6001600360008473ffffffffffffffffffffffffffffffffffffffff1673ffffffffffffffffffffffffffffffffffffffff16815260200190815260200160002060008282540192505081905550816002600083815260200190815260200160002060006101000a81548173ffffffffffffffffffffffffffffffffffffffff021916908373ffffffffffffffffffffffffffffffffffffffff160217905550808273ffffffffffffffffffffffffffffffffffffffff16600073ffffffffffffffffffffffffffffffffffffffff167fddf252ad1be2c89b69c2b068fc378daa952ba7f163c4a11628f55a4df523b3ef60405160405180910390a4611c726000838360016116fb565b5050565b828054611c8290612408565b90600052602060002090601f016020900481019282611ca45760008555611ceb565b82601f10611cbd57805160ff1916838001178555611ceb565b82800160010185558215611ceb579182015b82811115611cea578251825591602001919060010190611ccf565b5b509050611cf89190611cfc565b5090565b5b80821115611d15576000816000905550600101611cfd565b5090565b6000604051905090565b600080fd5b600080fd5b60007fffffffff0000000000000000000000000000000000000000000000000000000082169050919050565b611d6281611d2d565b8114611d6d57600080fd5b50565b600081359050611d7f81611d59565b92915050565b600060208284031215611d9b57611d9a611d23565b5b6000611da984828501611d70565b91505092915050565b60008115159050919050565b611dc781611db2565b82525050565b6000602082019050611de26000830184611dbe565b92915050565b600081519050919050565b600082825260208201905092915050565b60005b83811015611e22578082015181840152602081019050611e07565b83811115611e31576000848401525b50505050565b6000601f19601f8301169050919050565b6000611e5382611de8565b611e5d8185611df3565b9350611e6d818560208601611e04565b611e7681611e37565b840191505092915050565b60006020820190508181036000830152611e9b8184611e48565b905092915050565b6000819050919050565b611eb681611ea3565b8114611ec157600080fd5b50565b600081359050611ed381611ead565b92915050565b600060208284031215611eef57611eee611d23565b5b6000611efd84828501611ec4565b91505092915050565b600073ffffffffffffffffffffffffffffffffffffffff82169050919050565b6000611f3182611f06565b9050919050565b611f4181611f26565b82525050565b6000602082019050611f5c6000830184611f38565b92915050565b611f6b81611f26565b8114611f7657600080fd5b50565b600081359050611f8881611f62565b92915050565b60008060408385031215611fa557611fa4611d23565b5b6000611fb385828601611f79565b9250506020611fc485828601611ec4565b9150509250929050565b600080600060608486031215611fe757611fe6611d23565b5b6000611ff586828701611f79565b935050602061200686828701611f79565b925050604061201786828701611ec4565b9150509250925092565b60006020828403121561203757612036611d23565b5b600061204584828501611f79565b91505092915050565b61205781611ea3565b82525050565b6000602082019050612072600083018461204e565b92915050565b61208181611db2565b811461208c57600080fd5b50565b60008135905061209e81612078565b92915050565b600080604083850312156120bb576120ba611d23565b5b60006120c985828601611f79565b92505060206120da8582860161208f565b9150509250929050565b600080fd5b600080fd5b7f4e487b7100000000000000000000000000000000000000000000000000000000600052604160045260246000fd5b61212682611e37565b810181811067ffffffffffffffff82111715612145576121446120ee565b5b80604052505050565b6000612158611d19565b9050612164828261211d565b919050565b600067ffffffffffffffff821115612184576121836120ee565b5b61218d82611e37565b9050602081019050919050565b82818337600083830152505050565b60006121bc6121b784612169565b61214e565b9050828152602081018484840111156121d8576121d76120e9565b5b6121e384828561219a565b509392505050565b600082601f830112612200576121ff6120e4565b5b81356122108482602086016121a9565b91505092915050565b6000806000806080858703121561223357612232611d23565b5b600061224187828801611f79565b945050602061225287828801611f79565b935050604061226387828801611ec4565b925050606085013567ffffffffffffffff81111561228457612283611d28565b5b612290878288016121eb565b91505092959194509250565b600080604083850312156122b3576122b2611d23565b5b60006122c185828601611f79565b92505060206122d285828601611f79565b9150509250929050565b600067ffffffffffffffff8211156122f7576122f66120ee565b5b61230082611e37565b9050602081019050919050565b600061232061231b846122dc565b61214e565b90508281526020810184848401111561233c5761233b6120e9565b5b61234784828561219a565b509392505050565b600082601f830112612364576123636120e4565b5b813561237484826020860161230d565b91505092915050565b6000806040838503121561239457612393611d23565b5b60006123a285828601611f79565b925050602083013567ffffffffffffffff8111156123c3576123c2611d28565b5b6123cf8582860161234f565b9150509250929050565b7f4e487b7100000000000000000000000000000000000000000000000000000000600052602260045260246000fd5b6000600282049050600182168061242057607f821691505b602082108103612433576124326123d9565b5b50919050565b7f4552433732313a20617070726f76616c20746f2063757272656e74206f776e6560008201527f7200000000000000000000000000000000000000000000000000000000000000602082015250565b6000612495602183611df3565b91506124a082612439565b604082019050919050565b600060208201905081810360008301526124c481612488565b9050919050565b7f4552433732313a20617070726f76652063616c6c6572206973206e6f7420746f60008201527f6b656e206f776e6572206f7220617070726f76656420666f7220616c6c000000602082015250565b6000612527603d83611df3565b9150612532826124cb565b604082019050919050565b600060208201905081810360008301526125568161251a565b9050919050565b7f4552433732313a2063616c6c6572206973206e6f7420746f6b656e206f776e6560008201527f72206f7220617070726f76656400000000000000000000000000000000000000602082015250565b60006125b9602d83611df3565b91506125c48261255d565b604082019050919050565b600060208201905081810360008301526125e8816125ac565b9050919050565b7f4552433732313a20696e76616c696420746f6b656e2049440000000000000000600082015250565b6000612625601883611df3565b9150612630826125ef565b602082019050919050565b6000602082019050818103600083015261265481612618565b9050919050565b7f4552433732313a2061646472657373207a65726f206973206e6f74206120766160008201527f6c6964206f776e65720000000000000000000000000000000000000000000000602082015250565b60006126b7602983611df3565b91506126c28261265b565b604082019050919050565b600060208201905081810360008301526126e6816126aa565b9050919050565b600081905092915050565b600061270382611de8565b61270d81856126ed565b935061271d818560208601611e04565b80840191505092915050565b600061273582856126f8565b915061274182846126f8565b91508190509392505050565b7f4f776e61626c653a206e6577206f776e657220697320746865207a65726f206160008201527f6464726573730000000000000000000000000000000000000000000000000000602082015250565b60006127a9602683611df3565b91506127b48261274d565b604082019050919050565b600060208201905081810360008301526127d88161279c565b9050919050565b7f4552433732313a207472616e736665722066726f6d20696e636f72726563742060008201527f6f776e6572000000000000000000000000000000000000000000000000000000602082015250565b600061283b602583611df3565b9150612846826127df565b604082019050919050565b6000602082019050818103600083015261286a8161282e565b9050919050565b7f4552433732313a207472616e7366657220746f20746865207a65726f2061646460008201527f7265737300000000000000000000000000000000000000000000000000000000602082015250565b60006128cd602483611df3565b91506128d882612871565b604082019050919050565b600060208201905081810360008301526128fc816128c0565b9050919050565b7f4f776e61626c653a2063616c6c6572206973206e6f7420746865206f776e6572600082015250565b6000612939602083611df3565b915061294482612903565b602082019050919050565b600060208201905081810360008301526129688161292c565b9050919050565b7f4552433732313a20617070726f766520746f2063616c6c657200000000000000600082015250565b60006129a5601983611df3565b91506129b08261296f565b602082019050919050565b600060208201905081810360008301526129d481612998565b9050919050565b7f4552433732313a207472616e7366657220746f206e6f6e20455243373231526560008201527f63656976657220696d706c656d656e7465720000000000000000000000000000602082015250565b6000612a37603283611df3565b9150612a42826129db565b604082019050919050565b60006020820190508181036000830152612a6681612a2a565b9050919050565b7f4e487b7100000000000000000000000000000000000000000000000000000000600052601260045260246000fd5b7f45524337323155524953746f726167653a2055524920736574206f66206e6f6e60008201527f6578697374656e7420746f6b656e000000000000000000000000000000000000602082015250565b6000612af8602e83611df3565b9150612b0382612a9c565b604082019050919050565b60006020820190508181036000830152612b2781612aeb565b9050919050565b600081519050919050565b600082825260208201905092915050565b6000612b5582612b2e565b612b5f8185612b39565b9350612b6f818560208601611e04565b612b7881611e37565b840191505092915050565b6000608082019050612b986000830187611f38565b612ba56020830186611f38565b612bb2604083018561204e565b8181036060830152612bc48184612b4a565b905095945050505050565b600081519050612bde81611d59565b92915050565b600060208284031215612bfa57612bf9611d23565b5b6000612c0884828501612bcf565b91505092915050565b7f4552433732313a206d696e7420746f20746865207a65726f2061646472657373600082015250565b6000612c47602083611df3565b9150612c5282612c11565b602082019050919050565b60006020820190508181036000830152612c7681612c3a565b9050919050565b7f4552433732313a20746f6b656e20616c7265616479206d696e74656400000000600082015250565b6000612cb3601c83611df3565b9150612cbe82612c7d565b602082019050919050565b60006020820190508181036000830152612ce281612ca6565b905091905056fea2646970667358221220171ba8e394dc3d3da6a49e1a65a3fd29e392a88d76e4aad76e88bb0f57ecb11e64736f6c634300080d0033",
  "immutableReferences": {},
  "source": "//Contract based on [https://docs.openzeppelin.com/contracts/4.x/erc721](https://docs.openzeppelin.com/contracts/4.x/erc721)\n// SPDX-License-Identifier: MIT\npragma solidity ^0.8.13;\n\nimport \"@openzeppelin/contracts/token/ERC721/ERC721.sol\";\nimport \"@openzeppelin/contracts/token/ERC721/extensions/ERC721URIStorage.sol\";\nimport \"@openzeppelin/contracts/utils/Counters.sol\";\nimport \"@openzeppelin/contracts/access/Ownable.sol\";\n\ncontract TestNFT is ERC721URIStorage, Ownable {\n    using Counters for Counters.Counter;\n    using Strings for uint256;  // <--- import Strings for using toString function\n    Counters.Counter private _tokenIds;\n\n    constructor() ERC721(\"Test NFT\", \"TFT\") {}\n\n    function mintNFT(address recipient, string memory tokenURI)\n        public  // <--- Ensure only the owner can mint tokens\n        returns (uint256)\n    {\n        _tokenIds.increment();\n\n        uint256 newItemId = _tokenIds.current();\n        _safeMint(recipient, newItemId);\n        _setTokenURI(newItemId, string(abi.encodePacked(tokenURI, newItemId.toString())));  // <--- Concatenate the tokenURI and newItemId\n\n        return newItemId;\n    }\n}",
  "sourcePath": "/home/araki/jpegated/truffle/contracts/TestNFT.sol",
  "compiler": {
    "name": "solc",
    "version": "0.8.13+commit.abaa5c0e.Emscripten.clang"
  },
  "schemaVersion": "3.4.13",
  "updatedAt": "2023-06-24T23:51:21.091Z",
  "networkType": "ethereum",
  "devdoc": {
    "kind": "dev",
    "methods": {
      "approve(address,uint256)": {
        "details": "See {IERC721-approve}."
      },
      "balanceOf(address)": {
        "details": "See {IERC721-balanceOf}."
      },
      "getApproved(uint256)": {
        "details": "See {IERC721-getApproved}."
      },
      "isApprovedForAll(address,address)": {
        "details": "See {IERC721-isApprovedForAll}."
      },
      "name()": {
        "details": "See {IERC721Metadata-name}."
      },
      "owner()": {
        "details": "Returns the address of the current owner."
      },
      "ownerOf(uint256)": {
        "details": "See {IERC721-ownerOf}."
      },
      "renounceOwnership()": {
        "details": "Leaves the contract without owner. It will not be possible to call `onlyOwner` functions. Can only be called by the current owner. NOTE: Renouncing ownership will leave the contract without an owner, thereby disabling any functionality that is only available to the owner."
      },
      "safeTransferFrom(address,address,uint256)": {
        "details": "See {IERC721-safeTransferFrom}."
      },
      "safeTransferFrom(address,address,uint256,bytes)": {
        "details": "See {IERC721-safeTransferFrom}."
      },
      "setApprovalForAll(address,bool)": {
        "details": "See {IERC721-setApprovalForAll}."
      },
      "supportsInterface(bytes4)": {
        "details": "See {IERC165-supportsInterface}"
      },
      "symbol()": {
        "details": "See {IERC721Metadata-symbol}."
      },
      "tokenURI(uint256)": {
        "details": "See {IERC721Metadata-tokenURI}."
      },
      "transferFrom(address,address,uint256)": {
        "details": "See {IERC721-transferFrom}."
      },
      "transferOwnership(address)": {
        "details": "Transfers ownership of the contract to a new account (`newOwner`). Can only be called by the current owner."
      }
    },
    "version": 1
  },
  "userdoc": {
    "kind": "user",
    "methods": {},
    "version": 1
  }
}